{
  "contractName": "Szavazas",
  "abi": [
    {
      "inputs": [
        {
          "internalType": "string",
          "name": "_szavazasAdminNeve",
          "type": "string"
        },
        {
          "internalType": "string",
          "name": "_szavazoKerulet",
          "type": "string"
        }
      ],
      "payable": false,
      "stateMutability": "nonpayable",
      "type": "constructor"
    },
    {
      "anonymous": false,
      "inputs": [
        {
          "indexed": false,
          "internalType": "uint256",
          "name": "eredmeny",
          "type": "uint256"
        }
      ],
      "name": "szavazasBefejezes",
      "type": "event"
    },
    {
      "anonymous": false,
      "inputs": [],
      "name": "szavazasStart",
      "type": "event"
    },
    {
      "anonymous": false,
      "inputs": [
        {
          "indexed": false,
          "internalType": "address",
          "name": "szavazo",
          "type": "address"
        }
      ],
      "name": "szavazatLeadva",
      "type": "event"
    },
    {
      "anonymous": false,
      "inputs": [
        {
          "indexed": false,
          "internalType": "address",
          "name": "szavazo",
          "type": "address"
        }
      ],
      "name": "szavazoHozzaadva",
      "type": "event"
    },
    {
      "constant": true,
      "inputs": [],
      "name": "Szavazas_Statusz",
      "outputs": [
        {
          "internalType": "enum Szavazas.Statusz",
          "name": "",
          "type": "uint8"
        }
      ],
      "payable": false,
      "stateMutability": "view",
      "type": "function"
    },
    {
      "constant": true,
      "inputs": [],
      "name": "eredmeny",
      "outputs": [
        {
          "internalType": "uint256",
          "name": "",
          "type": "uint256"
        }
      ],
      "payable": false,
      "stateMutability": "view",
      "type": "function"
    },
    {
      "constant": true,
      "inputs": [],
      "name": "osszesSzavazat",
      "outputs": [
        {
          "internalType": "uint256",
          "name": "",
          "type": "uint256"
        }
      ],
      "payable": false,
      "stateMutability": "view",
      "type": "function"
    },
    {
      "constant": true,
      "inputs": [],
      "name": "osszesSzavazo",
      "outputs": [
        {
          "internalType": "uint256",
          "name": "",
          "type": "uint256"
        }
      ],
      "payable": false,
      "stateMutability": "view",
      "type": "function"
    },
    {
      "constant": true,
      "inputs": [],
      "name": "szavazasAdminAddress",
      "outputs": [
        {
          "internalType": "address",
          "name": "",
          "type": "address"
        }
      ],
      "payable": false,
      "stateMutability": "view",
      "type": "function"
    },
    {
      "constant": true,
      "inputs": [],
      "name": "szavazasAdminNeve",
      "outputs": [
        {
          "internalType": "string",
          "name": "",
          "type": "string"
        }
      ],
      "payable": false,
      "stateMutability": "view",
      "type": "function"
    },
    {
      "constant": true,
      "inputs": [],
      "name": "szavazoKerulet",
      "outputs": [
        {
          "internalType": "string",
          "name": "",
          "type": "string"
        }
      ],
      "payable": false,
      "stateMutability": "view",
      "type": "function"
    },
    {
      "constant": true,
      "inputs": [
        {
          "internalType": "address",
          "name": "",
          "type": "address"
        }
      ],
      "name": "szavazokTomb",
      "outputs": [
        {
          "internalType": "string",
          "name": "szavazoNeve",
          "type": "string"
        },
        {
          "internalType": "string",
          "name": "kerulet",
          "type": "string"
        },
        {
          "internalType": "bool",
          "name": "szavazott",
          "type": "bool"
        }
      ],
      "payable": false,
      "stateMutability": "view",
      "type": "function"
    },
    {
      "constant": false,
      "inputs": [
        {
          "internalType": "address",
          "name": "_szavazoAddress",
          "type": "address"
        },
        {
          "internalType": "string",
          "name": "_szavazoNeve",
          "type": "string"
        },
        {
          "internalType": "string",
          "name": "_kerulet",
          "type": "string"
        }
      ],
      "name": "UjSzavazo",
      "outputs": [],
      "payable": false,
      "stateMutability": "nonpayable",
      "type": "function"
    },
    {
      "constant": false,
      "inputs": [],
      "name": "SzavazasKezdese",
      "outputs": [],
      "payable": false,
      "stateMutability": "nonpayable",
      "type": "function"
    },
    {
      "constant": false,
      "inputs": [
        {
          "internalType": "address",
          "name": "_valasztott",
          "type": "address"
        }
      ],
      "name": "szavazatLeadas",
      "outputs": [
        {
          "internalType": "bool",
          "name": "szavazott",
          "type": "bool"
        }
      ],
      "payable": false,
      "stateMutability": "nonpayable",
      "type": "function"
    },
    {
      "constant": false,
      "inputs": [],
      "name": "szavazasVege",
      "outputs": [],
      "payable": false,
      "stateMutability": "nonpayable",
      "type": "function"
    }
  ],
  "bytecode": "0x608060405260006002556000600355600060045560006005553480156200002557600080fd5b506040516200137438038062001374833981810160405260408110156200004b57600080fd5b81019080805160405193929190846401000000008211156200006c57600080fd5b838201915060208201858111156200008357600080fd5b8251866001820283011164010000000082111715620000a157600080fd5b8083526020830192505050908051906020019080838360005b83811015620000d7578082015181840152602081019050620000ba565b50505050905090810190601f168015620001055780820380516001836020036101000a031916815260200191505b50604052602001805160405193929190846401000000008211156200012957600080fd5b838201915060208201858111156200014057600080fd5b82518660018202830111640100000000821117156200015e57600080fd5b8083526020830192505050908051906020019080838360005b838110156200019457808201518184015260208101905062000177565b50505050905090810190601f168015620001c25780820380516001836020036101000a031916815260200191505b5060405250505033600660006101000a81548173ffffffffffffffffffffffffffffffffffffffff021916908373ffffffffffffffffffffffffffffffffffffffff16021790555081600790805190602001906200022292919062000269565b5080600890805190602001906200023b92919062000269565b506000600960006101000a81548160ff021916908360028111156200025c57fe5b0217905550505062000318565b828054600181600116156101000203166002900490600052602060002090601f016020900481019282601f10620002ac57805160ff1916838001178555620002dd565b82800160010185558215620002dd579182015b82811115620002dc578251825591602001919060010190620002bf565b5b509050620002ec9190620002f0565b5090565b6200031591905b8082111562000311576000816000905550600101620002f7565b5090565b90565b61104c80620003286000396000f3fe608060405234801561001057600080fd5b50600436106100b45760003560e01c8063b84cf58e11610071578063b84cf58e14610231578063b9f514f3146103a3578063d4338218146103ff578063e435b6a914610409578063e7b8c21c14610427578063f6f8976914610471576100b4565b806321d7eb0d146100b95780633441e438146100c35780634ac1e3a3146100e15780636c97180814610164578063929e8b5614610182578063b825fdd1146101ae575b600080fd5b6100c16105a5565b005b6100cb61069b565b6040518082815260200191505060405180910390f35b6100e96106a1565b6040518080602001828103825283818151815260200191508051906020019080838360005b8381101561012957808201518184015260208101905061010e565b50505050905090810190601f1680156101565780820380516001836020036101000a031916815260200191505b509250505060405180910390f35b61016c61073f565b6040518082815260200191505060405180910390f35b61018a610745565b6040518082600281111561019a57fe5b60ff16815260200191505060405180910390f35b6101b6610758565b6040518080602001828103825283818151815260200191508051906020019080838360005b838110156101f65780820151818401526020810190506101db565b50505050905090810190601f1680156102235780820380516001836020036101000a031916815260200191505b509250505060405180910390f35b6103a16004803603606081101561024757600080fd5b81019080803573ffffffffffffffffffffffffffffffffffffffff1690602001909291908035906020019064010000000081111561028457600080fd5b82018360208201111561029657600080fd5b803590602001918460018302840111640100000000831117156102b857600080fd5b91908080601f016020809104026020016040519081016040528093929190818152602001838380828437600081840152601f19601f8201169050808301925050505050505091929192908035906020019064010000000081111561031b57600080fd5b82018360208201111561032d57600080fd5b8035906020019184600183028401116401000000008311171561034f57600080fd5b91908080601f016020809104026020016040519081016040528093929190818152602001838380828437600081840152601f19601f8201169050808301925050505050505091929192905050506107f6565b005b6103e5600480360360208110156103b957600080fd5b81019080803573ffffffffffffffffffffffffffffffffffffffff1690602001909291905050506109c7565b604051808215151515815260200191505060405180910390f35b610407610ca3565b005b610411610d83565b6040518082815260200191505060405180910390f35b61042f610d89565b604051808273ffffffffffffffffffffffffffffffffffffffff1673ffffffffffffffffffffffffffffffffffffffff16815260200191505060405180910390f35b6104b36004803603602081101561048757600080fd5b81019080803573ffffffffffffffffffffffffffffffffffffffff169060200190929190505050610daf565b60405180806020018060200184151515158152602001838103835286818151815260200191508051906020019080838360005b838110156105015780820151818401526020810190506104e6565b50505050905090810190601f16801561052e5780820380516001836020036101000a031916815260200191505b50838103825285818151815260200191508051906020019080838360005b8381101561056757808201518184015260208101905061054c565b50505050905090810190601f1680156105945780820380516001836020036101000a031916815260200191505b509550505050505060405180910390f35b60018060028111156105b357fe5b600960009054906101000a900460ff1660028111156105ce57fe5b146105d857600080fd5b600660009054906101000a900473ffffffffffffffffffffffffffffffffffffffff1673ffffffffffffffffffffffffffffffffffffffff163373ffffffffffffffffffffffffffffffffffffffff161461063257600080fd5b6002600960006101000a81548160ff0219169083600281111561065157fe5b02179055506002546003819055507f3cf81ab19afebc269868f27338cf573b6d5d7f60854a40a0b1dcc68055a4fd3a6003546040518082815260200191505060405180910390a150565b60055481565b60078054600181600116156101000203166002900480601f0160208091040260200160405190810160405280929190818152602001828054600181600116156101000203166002900480156107375780601f1061070c57610100808354040283529160200191610737565b820191906000526020600020905b81548152906001019060200180831161071a57829003601f168201915b505050505081565b60035481565b600960009054906101000a900460ff1681565b60088054600181600116156101000203166002900480601f0160208091040260200160405190810160405280929190818152602001828054600181600116156101000203166002900480156107ee5780601f106107c3576101008083540402835291602001916107ee565b820191906000526020600020905b8154815290600101906020018083116107d157829003601f168201915b505050505081565b600080600281111561080457fe5b600960009054906101000a900460ff16600281111561081f57fe5b1461082957600080fd5b600660009054906101000a900473ffffffffffffffffffffffffffffffffffffffff1673ffffffffffffffffffffffffffffffffffffffff163373ffffffffffffffffffffffffffffffffffffffff161461088357600080fd5b61088b610f16565b838160000181905250828160200181905250600081604001901515908115158152505080600160008773ffffffffffffffffffffffffffffffffffffffff1673ffffffffffffffffffffffffffffffffffffffff168152602001908152602001600020600082015181600001908051906020019061090a929190610f39565b506020820151816001019080519060200190610927929190610f39565b5060408201518160020160006101000a81548160ff0219169083151502179055509050506004600081548092919060010191905055507fc58f4bbe93d8e74991fc3cc9a76663b10264b4f4dabd8afaad8c2e521fdad61885604051808273ffffffffffffffffffffffffffffffffffffffff1673ffffffffffffffffffffffffffffffffffffffff16815260200191505060405180910390a15050505050565b600060018060028111156109d757fe5b600960009054906101000a900460ff1660028111156109f257fe5b146109fc57600080fd5b60008090506000600160003373ffffffffffffffffffffffffffffffffffffffff1673ffffffffffffffffffffffffffffffffffffffff16815260200190815260200160002060000180546001816001161561010002031660029004905014158015610ab55750600160003373ffffffffffffffffffffffffffffffffffffffff1673ffffffffffffffffffffffffffffffffffffffff16815260200190815260200160002060020160009054906101000a900460ff16155b15610c365760018060003373ffffffffffffffffffffffffffffffffffffffff1673ffffffffffffffffffffffffffffffffffffffff16815260200190815260200160002060020160006101000a81548160ff021916908315150217905550610b1c610fb9565b33816000019073ffffffffffffffffffffffffffffffffffffffff16908173ffffffffffffffffffffffffffffffffffffffff16815250506001816040019015159081151581525050806040015115610b82576002600081548092919060010191905055505b80600080600554815260200190815260200160002060008201518160000160006101000a81548173ffffffffffffffffffffffffffffffffffffffff021916908373ffffffffffffffffffffffffffffffffffffffff1602179055506020820151816001019080519060200190610bfa929190610f39565b5060408201518160020160006101000a81548160ff02191690831515021790555090505060056000815480929190600101919050555060019150505b7fd1ad87abf59ed5121f95bd436567747325211f01c290fc8efc81c8a038a8834e33604051808273ffffffffffffffffffffffffffffffffffffffff1673ffffffffffffffffffffffffffffffffffffffff16815260200191505060405180910390a18092505050919050565b6000806002811115610cb157fe5b600960009054906101000a900460ff166002811115610ccc57fe5b14610cd657600080fd5b600660009054906101000a900473ffffffffffffffffffffffffffffffffffffffff1673ffffffffffffffffffffffffffffffffffffffff163373ffffffffffffffffffffffffffffffffffffffff1614610d3057600080fd5b6001600960006101000a81548160ff02191690836002811115610d4f57fe5b02179055507f77fa8db2a42189c962393508e65080e081ece5a70daa280921fae7f4ef3f001460405160405180910390a150565b60045481565b600660009054906101000a900473ffffffffffffffffffffffffffffffffffffffff1681565b6001602052806000526040600020600091509050806000018054600181600116156101000203166002900480601f016020809104026020016040519081016040528092919081815260200182805460018160011615610100020316600290048015610e5b5780601f10610e3057610100808354040283529160200191610e5b565b820191906000526020600020905b815481529060010190602001808311610e3e57829003601f168201915b505050505090806001018054600181600116156101000203166002900480601f016020809104026020016040519081016040528092919081815260200182805460018160011615610100020316600290048015610ef95780601f10610ece57610100808354040283529160200191610ef9565b820191906000526020600020905b815481529060010190602001808311610edc57829003601f168201915b5050505050908060020160009054906101000a900460ff16905083565b604051806060016040528060608152602001606081526020016000151581525090565b828054600181600116156101000203166002900490600052602060002090601f016020900481019282601f10610f7a57805160ff1916838001178555610fa8565b82800160010185558215610fa8579182015b82811115610fa7578251825591602001919060010190610f8c565b5b509050610fb59190610ff2565b5090565b6040518060600160405280600073ffffffffffffffffffffffffffffffffffffffff168152602001606081526020016000151581525090565b61101491905b80821115611010576000816000905550600101610ff8565b5090565b9056fea265627a7a7231582054d940950085f5d8c653dcad4e6887689cc9b7404c4bb401f2e3611ab63908ee64736f6c63430005100032",
  "source": "pragma solidity ^0.5.0;\r\n\r\ncontract Szavazas {\r\n\r\n    struct szavazas {\r\n        address szavazoAddress;\r\n        string kerulet;\r\n        bool valasztott;\r\n    }\r\n\r\n    struct szavazo {\r\n        string szavazoNeve;\r\n        string kerulet;\r\n        bool szavazott;\r\n    }\r\n\r\n    mapping(uint => szavazas) private szavazatok;\r\n    mapping(address => szavazo) public szavazokTomb;\r\n\r\n    uint private osszes = 0;\r\n    uint public eredmeny = 0;\r\n    uint public osszesSzavazo = 0;\r\n    uint public osszesSzavazat = 0;\r\n    \r\n    address public szavazasAdminAddress;\r\n    string public szavazasAdminNeve;\r\n    string public szavazoKerulet;\r\n\r\n    enum Statusz { Meghirdetve, SzavazasAlatt, Vege }\r\n    Statusz public Szavazas_Statusz;\r\n\r\n    constructor(string memory _szavazasAdminNeve,string memory _szavazoKerulet) public {\r\n        szavazasAdminAddress = msg.sender;\r\n        szavazasAdminNeve = _szavazasAdminNeve;\r\n        szavazoKerulet = _szavazoKerulet;\r\n        Szavazas_Statusz = Statusz.Meghirdetve;\r\n    }\r\n\r\n    modifier csakAdmin() {\r\n        require(msg.sender == szavazasAdminAddress);\r\n        _;\r\n    }\r\n\r\n    modifier StatuszEllenorzes(Statusz _statusz) {\r\n        require(Szavazas_Statusz == _statusz);\r\n        _;\r\n    }\r\n\r\n    event szavazoHozzaadva(address szavazo);\r\n    event szavazasStart();\r\n    event szavazasBefejezes(uint eredmeny);\r\n    event szavazatLeadva(address szavazo);\r\n\r\n    function UjSzavazo(address _szavazoAddress, string memory _szavazoNeve, string memory _kerulet) public StatuszEllenorzes(Statusz.Meghirdetve) csakAdmin {\r\n        szavazo memory sz;\r\n        sz.szavazoNeve = _szavazoNeve;\r\n        sz.kerulet = _kerulet;\r\n        sz.szavazott = false;\r\n        szavazokTomb[_szavazoAddress] = sz;\r\n        osszesSzavazo++;\r\n        emit szavazoHozzaadva(_szavazoAddress);\r\n    }\r\n\r\n    function SzavazasKezdese() public StatuszEllenorzes(Statusz.Meghirdetve) csakAdmin {\r\n        Szavazas_Statusz = Statusz.SzavazasAlatt;\r\n        emit szavazasStart();\r\n    }\r\n\r\n    function szavazatLeadas(address _valasztott) public StatuszEllenorzes(Statusz.SzavazasAlatt) returns (bool szavazott) {\r\n        bool talalat = false;\r\n        if (bytes(szavazokTomb[msg.sender].szavazoNeve).length != 0 && !szavazokTomb[msg.sender].szavazott) {\r\n            szavazokTomb[msg.sender].szavazott = true;\r\n            szavazas memory sz;\r\n            sz.szavazoAddress = msg.sender;\r\n            sz.valasztott = true;\r\n            if (sz.valasztott) {\r\n                osszes++;\r\n            }\r\n            szavazatok[osszesSzavazat] = sz;\r\n            osszesSzavazat++;\r\n            talalat = true;\r\n        }\r\n        emit szavazatLeadva(msg.sender);\r\n        return talalat;\r\n    }\r\n\r\n    function szavazasVege() public StatuszEllenorzes(Statusz.SzavazasAlatt) csakAdmin {\r\n        Szavazas_Statusz = Statusz.Vege;\r\n        eredmeny = osszes;\r\n        emit szavazasBefejezes(eredmeny);\r\n    }\r\n    \r\n}",
  "sourcePath": "C:/dataflex/Szavazas_Blockchain/contracts/Szavazas.sol",
  "compiler": {
    "name": "solc",
    "version": "0.5.16+commit.9c3226ce.Emscripten.clang"
  },
  "schemaVersion": "3.4.1",
  "updatedAt": "2021-05-15T16:30:25.268Z",
  "devdoc": {
    "methods": {}
  },
  "userdoc": {
    "methods": {}
  }
}