{
  "contractName": "Szavazas",
  "abi": [
    {
      "inputs": [
        {
          "internalType": "string",
          "name": "_szavazasAdminNeve",
          "type": "string"
        },
        {
          "internalType": "string",
          "name": "_szavazoKerulet",
          "type": "string"
        }
      ],
      "payable": false,
      "stateMutability": "nonpayable",
      "type": "constructor"
    },
    {
      "anonymous": false,
      "inputs": [
        {
          "indexed": false,
          "internalType": "address",
          "name": "indulo",
          "type": "address"
        }
      ],
      "name": "induloHozzaadva",
      "type": "event"
    },
    {
      "anonymous": false,
      "inputs": [
        {
          "indexed": false,
          "internalType": "uint256",
          "name": "eredmeny",
          "type": "uint256"
        }
      ],
      "name": "szavazasBefejezes",
      "type": "event"
    },
    {
      "anonymous": false,
      "inputs": [],
      "name": "szavazasStart",
      "type": "event"
    },
    {
      "anonymous": false,
      "inputs": [],
      "name": "szavazasUjraindul",
      "type": "event"
    },
    {
      "anonymous": false,
      "inputs": [
        {
          "indexed": false,
          "internalType": "address",
          "name": "szavazo",
          "type": "address"
        }
      ],
      "name": "szavazatLeadva",
      "type": "event"
    },
    {
      "anonymous": false,
      "inputs": [
        {
          "indexed": false,
          "internalType": "address",
          "name": "szavazo",
          "type": "address"
        }
      ],
      "name": "szavazoHozzaadva",
      "type": "event"
    },
    {
      "constant": true,
      "inputs": [],
      "name": "Szavazas_Statusz",
      "outputs": [
        {
          "internalType": "enum Szavazas.Statusz",
          "name": "",
          "type": "uint8"
        }
      ],
      "payable": false,
      "stateMutability": "view",
      "type": "function"
    },
    {
      "constant": true,
      "inputs": [],
      "name": "eredmeny",
      "outputs": [
        {
          "internalType": "uint256",
          "name": "",
          "type": "uint256"
        }
      ],
      "payable": false,
      "stateMutability": "view",
      "type": "function"
    },
    {
      "constant": true,
      "inputs": [
        {
          "internalType": "address",
          "name": "",
          "type": "address"
        }
      ],
      "name": "indulokTomb",
      "outputs": [
        {
          "internalType": "string",
          "name": "induloNeve",
          "type": "string"
        },
        {
          "internalType": "uint256",
          "name": "kapottSzavazat",
          "type": "uint256"
        },
        {
          "internalType": "string",
          "name": "kerulet",
          "type": "string"
        }
      ],
      "payable": false,
      "stateMutability": "view",
      "type": "function"
    },
    {
      "constant": true,
      "inputs": [],
      "name": "osszesIndulo",
      "outputs": [
        {
          "internalType": "uint256",
          "name": "",
          "type": "uint256"
        }
      ],
      "payable": false,
      "stateMutability": "view",
      "type": "function"
    },
    {
      "constant": true,
      "inputs": [],
      "name": "osszesSzavazat",
      "outputs": [
        {
          "internalType": "uint256",
          "name": "",
          "type": "uint256"
        }
      ],
      "payable": false,
      "stateMutability": "view",
      "type": "function"
    },
    {
      "constant": true,
      "inputs": [],
      "name": "osszesSzavazo",
      "outputs": [
        {
          "internalType": "uint256",
          "name": "",
          "type": "uint256"
        }
      ],
      "payable": false,
      "stateMutability": "view",
      "type": "function"
    },
    {
      "constant": true,
      "inputs": [],
      "name": "szavazasAdminAddress",
      "outputs": [
        {
          "internalType": "address",
          "name": "",
          "type": "address"
        }
      ],
      "payable": false,
      "stateMutability": "view",
      "type": "function"
    },
    {
      "constant": true,
      "inputs": [],
      "name": "szavazasAdminNeve",
      "outputs": [
        {
          "internalType": "string",
          "name": "",
          "type": "string"
        }
      ],
      "payable": false,
      "stateMutability": "view",
      "type": "function"
    },
    {
      "constant": true,
      "inputs": [],
      "name": "szavazoKerulet",
      "outputs": [
        {
          "internalType": "string",
          "name": "",
          "type": "string"
        }
      ],
      "payable": false,
      "stateMutability": "view",
      "type": "function"
    },
    {
      "constant": true,
      "inputs": [
        {
          "internalType": "address",
          "name": "",
          "type": "address"
        }
      ],
      "name": "szavazokTomb",
      "outputs": [
        {
          "internalType": "string",
          "name": "szavazoNeve",
          "type": "string"
        },
        {
          "internalType": "string",
          "name": "kerulet",
          "type": "string"
        },
        {
          "internalType": "bool",
          "name": "szavazott",
          "type": "bool"
        }
      ],
      "payable": false,
      "stateMutability": "view",
      "type": "function"
    },
    {
      "constant": true,
      "inputs": [
        {
          "internalType": "string",
          "name": "a",
          "type": "string"
        },
        {
          "internalType": "string",
          "name": "b",
          "type": "string"
        }
      ],
      "name": "compareStrings",
      "outputs": [
        {
          "internalType": "bool",
          "name": "",
          "type": "bool"
        }
      ],
      "payable": false,
      "stateMutability": "view",
      "type": "function"
    },
    {
      "constant": false,
      "inputs": [
        {
          "internalType": "address",
          "name": "_szavazoAddress",
          "type": "address"
        },
        {
          "internalType": "string",
          "name": "_szavazoNeve",
          "type": "string"
        },
        {
          "internalType": "string",
          "name": "_kerulet",
          "type": "string"
        }
      ],
      "name": "UjSzavazo",
      "outputs": [],
      "payable": false,
      "stateMutability": "nonpayable",
      "type": "function"
    },
    {
      "constant": false,
      "inputs": [
        {
          "internalType": "address",
          "name": "_induloAddress",
          "type": "address"
        },
        {
          "internalType": "string",
          "name": "_induloNeve",
          "type": "string"
        },
        {
          "internalType": "string",
          "name": "_kerulet",
          "type": "string"
        }
      ],
      "name": "UjIndulo",
      "outputs": [],
      "payable": false,
      "stateMutability": "nonpayable",
      "type": "function"
    },
    {
      "constant": false,
      "inputs": [],
      "name": "SzavazasKezdese",
      "outputs": [],
      "payable": false,
      "stateMutability": "nonpayable",
      "type": "function"
    },
    {
      "constant": false,
      "inputs": [
        {
          "internalType": "address",
          "name": "_valasztott",
          "type": "address"
        }
      ],
      "name": "szavazatLeadas",
      "outputs": [
        {
          "internalType": "bool",
          "name": "szavazott",
          "type": "bool"
        }
      ],
      "payable": false,
      "stateMutability": "nonpayable",
      "type": "function"
    },
    {
      "constant": false,
      "inputs": [],
      "name": "szavazasVege",
      "outputs": [],
      "payable": false,
      "stateMutability": "nonpayable",
      "type": "function"
    },
    {
      "constant": false,
      "inputs": [],
      "name": "szavazasReset",
      "outputs": [],
      "payable": false,
      "stateMutability": "nonpayable",
      "type": "function"
    }
  ],
  "bytecode": "0x6080604052600060035560006004556000600555600060065560006007553480156200002a57600080fd5b5060405162001e3238038062001e32833981810160405260408110156200005057600080fd5b81019080805160405193929190846401000000008211156200007157600080fd5b838201915060208201858111156200008857600080fd5b8251866001820283011164010000000082111715620000a657600080fd5b8083526020830192505050908051906020019080838360005b83811015620000dc578082015181840152602081019050620000bf565b50505050905090810190601f1680156200010a5780820380516001836020036101000a031916815260200191505b50604052602001805160405193929190846401000000008211156200012e57600080fd5b838201915060208201858111156200014557600080fd5b82518660018202830111640100000000821117156200016357600080fd5b8083526020830192505050908051906020019080838360005b83811015620001995780820151818401526020810190506200017c565b50505050905090810190601f168015620001c75780820380516001836020036101000a031916815260200191505b5060405250505033600860006101000a81548173ffffffffffffffffffffffffffffffffffffffff021916908373ffffffffffffffffffffffffffffffffffffffff16021790555081600990805190602001906200022792919062000276565b5080600a90805190602001906200024092919062000276565b506000600b60006101000a81548160ff021916908360028111156200026157fe5b02179055506000600381905550505062000325565b828054600181600116156101000203166002900490600052602060002090601f016020900481019282601f10620002b957805160ff1916838001178555620002ea565b82800160010185558215620002ea579182015b82811115620002e9578251825591602001919060010190620002cc565b5b509050620002f99190620002fd565b5090565b6200032291905b808211156200031e57600081600090555060010162000304565b5090565b90565b611afd80620003356000396000f3fe608060405234801561001057600080fd5b506004361061010b5760003560e01c8063b825fdd1116100a2578063d433821811610071578063d433821814610880578063e435b6a91461088a578063e7b8c21c146108a8578063f483ae0a146108f2578063f6f89769146108fc5761010b565b8063b825fdd1146104c5578063b84cf58e14610548578063b9f514f3146106ba578063bed34bba146107165761010b565b80636c971808116100de5780636c971808146102eb578063709cb4d01461030957806387bdfe3914610327578063929e8b56146104995761010b565b806321d7eb0d146101105780632de1f0211461011a5780633441e4381461024a5780634ac1e3a314610268575b600080fd5b610118610a30565b005b61015c6004803603602081101561013057600080fd5b81019080803573ffffffffffffffffffffffffffffffffffffffff169060200190929190505050610b26565b604051808060200184815260200180602001838103835286818151815260200191508051906020019080838360005b838110156101a657808201518184015260208101905061018b565b50505050905090810190601f1680156101d35780820380516001836020036101000a031916815260200191505b50838103825284818151815260200191508051906020019080838360005b8381101561020c5780820151818401526020810190506101f1565b50505050905090810190601f1680156102395780820380516001836020036101000a031916815260200191505b509550505050505060405180910390f35b610252610c80565b6040518082815260200191505060405180910390f35b610270610c86565b6040518080602001828103825283818151815260200191508051906020019080838360005b838110156102b0578082015181840152602081019050610295565b50505050905090810190601f1680156102dd5780820380516001836020036101000a031916815260200191505b509250505060405180910390f35b6102f3610d24565b6040518082815260200191505060405180910390f35b610311610d2a565b6040518082815260200191505060405180910390f35b6104976004803603606081101561033d57600080fd5b81019080803573ffffffffffffffffffffffffffffffffffffffff1690602001909291908035906020019064010000000081111561037a57600080fd5b82018360208201111561038c57600080fd5b803590602001918460018302840111640100000000831117156103ae57600080fd5b91908080601f016020809104026020016040519081016040528093929190818152602001838380828437600081840152601f19601f8201169050808301925050505050505091929192908035906020019064010000000081111561041157600080fd5b82018360208201111561042357600080fd5b8035906020019184600183028401116401000000008311171561044557600080fd5b91908080601f016020809104026020016040519081016040528093929190818152602001838380828437600081840152601f19601f820116905080830192505050505050509192919290505050610d30565b005b6104a1610e8b565b604051808260028111156104b157fe5b60ff16815260200191505060405180910390f35b6104cd610e9e565b6040518080602001828103825283818151815260200191508051906020019080838360005b8381101561050d5780820151818401526020810190506104f2565b50505050905090810190601f16801561053a5780820380516001836020036101000a031916815260200191505b509250505060405180910390f35b6106b86004803603606081101561055e57600080fd5b81019080803573ffffffffffffffffffffffffffffffffffffffff1690602001909291908035906020019064010000000081111561059b57600080fd5b8201836020820111156105ad57600080fd5b803590602001918460018302840111640100000000831117156105cf57600080fd5b91908080601f016020809104026020016040519081016040528093929190818152602001838380828437600081840152601f19601f8201169050808301925050505050505091929192908035906020019064010000000081111561063257600080fd5b82018360208201111561064457600080fd5b8035906020019184600183028401116401000000008311171561066657600080fd5b91908080601f016020809104026020016040519081016040528093929190818152602001838380828437600081840152601f19601f820116905080830192505050505050509192919290505050610f3c565b005b6106fc600480360360208110156106d057600080fd5b81019080803573ffffffffffffffffffffffffffffffffffffffff16906020019092919050505061110d565b604051808215151515815260200191505060405180910390f35b6108666004803603604081101561072c57600080fd5b810190808035906020019064010000000081111561074957600080fd5b82018360208201111561075b57600080fd5b8035906020019184600183028401116401000000008311171561077d57600080fd5b91908080601f016020809104026020016040519081016040528093929190818152602001838380828437600081840152601f19601f820116905080830192505050505050509192919290803590602001906401000000008111156107e057600080fd5b8201836020820111156107f257600080fd5b8035906020019184600183028401116401000000008311171561081457600080fd5b91908080601f016020809104026020016040519081016040528093929190818152602001838380828437600081840152601f19601f820116905080830192505050505050509192919290505050611618565b604051808215151515815260200191505060405180910390f35b610888611633565b005b610892611713565b6040518082815260200191505060405180910390f35b6108b0611719565b604051808273ffffffffffffffffffffffffffffffffffffffff1673ffffffffffffffffffffffffffffffffffffffff16815260200191505060405180910390f35b6108fa61173f565b005b61093e6004803603602081101561091257600080fd5b81019080803573ffffffffffffffffffffffffffffffffffffffff16906020019092919050505061183f565b60405180806020018060200184151515158152602001838103835286818151815260200191508051906020019080838360005b8381101561098c578082015181840152602081019050610971565b50505050905090810190601f1680156109b95780820380516001836020036101000a031916815260200191505b50838103825285818151815260200191508051906020019080838360005b838110156109f25780820151818401526020810190506109d7565b50505050905090810190601f168015610a1f5780820380516001836020036101000a031916815260200191505b509550505050505060405180910390f35b6001806002811115610a3e57fe5b600b60009054906101000a900460ff166002811115610a5957fe5b14610a6357600080fd5b600860009054906101000a900473ffffffffffffffffffffffffffffffffffffffff1673ffffffffffffffffffffffffffffffffffffffff163373ffffffffffffffffffffffffffffffffffffffff1614610abd57600080fd5b6002600b60006101000a81548160ff02191690836002811115610adc57fe5b02179055506003546004819055507f3cf81ab19afebc269868f27338cf573b6d5d7f60854a40a0b1dcc68055a4fd3a6004546040518082815260200191505060405180910390a150565b6002602052806000526040600020600091509050806000018054600181600116156101000203166002900480601f016020809104026020016040519081016040528092919081815260200182805460018160011615610100020316600290048015610bd25780601f10610ba757610100808354040283529160200191610bd2565b820191906000526020600020905b815481529060010190602001808311610bb557829003601f168201915b505050505090806001015490806002018054600181600116156101000203166002900480601f016020809104026020016040519081016040528092919081815260200182805460018160011615610100020316600290048015610c765780601f10610c4b57610100808354040283529160200191610c76565b820191906000526020600020905b815481529060010190602001808311610c5957829003601f168201915b5050505050905083565b60075481565b60098054600181600116156101000203166002900480601f016020809104026020016040519081016040528092919081815260200182805460018160011615610100020316600290048015610d1c5780601f10610cf157610100808354040283529160200191610d1c565b820191906000526020600020905b815481529060010190602001808311610cff57829003601f168201915b505050505081565b60045481565b60055481565b6000806002811115610d3e57fe5b600b60009054906101000a900460ff166002811115610d5957fe5b14610d6357600080fd5b610d6b6119a6565b838160000181905250828160400181905250600081602001818152505080600260008773ffffffffffffffffffffffffffffffffffffffff1673ffffffffffffffffffffffffffffffffffffffff1681526020019081526020016000206000820151816000019080519060200190610de49291906119c7565b50602082015181600101556040820151816002019080519060200190610e0b9291906119c7565b509050506005600081548092919060010191905055507fa092ba30bc77217a47de65af2ab5df3a5a75044281407155eda4a36e8352fd7985604051808273ffffffffffffffffffffffffffffffffffffffff1673ffffffffffffffffffffffffffffffffffffffff16815260200191505060405180910390a15050505050565b600b60009054906101000a900460ff1681565b600a8054600181600116156101000203166002900480601f016020809104026020016040519081016040528092919081815260200182805460018160011615610100020316600290048015610f345780601f10610f0957610100808354040283529160200191610f34565b820191906000526020600020905b815481529060010190602001808311610f1757829003601f168201915b505050505081565b6000806002811115610f4a57fe5b600b60009054906101000a900460ff166002811115610f6557fe5b14610f6f57600080fd5b600860009054906101000a900473ffffffffffffffffffffffffffffffffffffffff1673ffffffffffffffffffffffffffffffffffffffff163373ffffffffffffffffffffffffffffffffffffffff1614610fc957600080fd5b610fd1611a47565b838160000181905250828160200181905250600081604001901515908115158152505080600160008773ffffffffffffffffffffffffffffffffffffffff1673ffffffffffffffffffffffffffffffffffffffff16815260200190815260200160002060008201518160000190805190602001906110509291906119c7565b50602082015181600101908051906020019061106d9291906119c7565b5060408201518160020160006101000a81548160ff0219169083151502179055509050506006600081548092919060010191905055507fc58f4bbe93d8e74991fc3cc9a76663b10264b4f4dabd8afaad8c2e521fdad61885604051808273ffffffffffffffffffffffffffffffffffffffff1673ffffffffffffffffffffffffffffffffffffffff16815260200191505060405180910390a15050505050565b6000600180600281111561111d57fe5b600b60009054906101000a900460ff16600281111561113857fe5b1461114257600080fd5b600160003373ffffffffffffffffffffffffffffffffffffffff1673ffffffffffffffffffffffffffffffffffffffff1681526020019081526020016000206001018054600181600116156101000203166002900480601f0160208091040260200160405190810160405280929190818152602001828054600181600116156101000203166002900480156112185780601f106111ed57610100808354040283529160200191611218565b820191906000526020600020905b8154815290600101906020018083116111fb57829003601f168201915b50505050506112c181600a8054600181600116156101000203166002900480601f0160208091040260200160405190810160405280929190818152602001828054600181600116156101000203166002900480156112b75780601f1061128c576101008083540402835291602001916112b7565b820191906000526020600020905b81548152906001019060200180831161129a57829003601f168201915b5050505050611618565b6112ca57600080fd5b60008090506000600160003373ffffffffffffffffffffffffffffffffffffffff1673ffffffffffffffffffffffffffffffffffffffff168152602001908152602001600020600001805460018160011615610100020316600290049050141580156113835750600160003373ffffffffffffffffffffffffffffffffffffffff1673ffffffffffffffffffffffffffffffffffffffff16815260200190815260200160002060020160009054906101000a900460ff16155b156115aa576000600260008773ffffffffffffffffffffffffffffffffffffffff1673ffffffffffffffffffffffffffffffffffffffff168152602001908152602001600020600001805460018160011615610100020316600290049050146115a957600260008673ffffffffffffffffffffffffffffffffffffffff1673ffffffffffffffffffffffffffffffffffffffff1681526020019081526020016000206001016000815480929190600101919050555060018060003373ffffffffffffffffffffffffffffffffffffffff1673ffffffffffffffffffffffffffffffffffffffff16815260200190815260200160002060020160006101000a81548160ff02191690831515021790555061149a611a6a565b33816000019073ffffffffffffffffffffffffffffffffffffffff16908173ffffffffffffffffffffffffffffffffffffffff1681525050600181604001901515908115158152505060036000815480929190600101919050555080600080600754815260200190815260200160002060008201518160000160006101000a81548173ffffffffffffffffffffffffffffffffffffffff021916908373ffffffffffffffffffffffffffffffffffffffff160217905550602082015181600101908051906020019061156d9291906119c7565b5060408201518160020160006101000a81548160ff02191690831515021790555090505060076000815480929190600101919050555060019150505b5b7fd1ad87abf59ed5121f95bd436567747325211f01c290fc8efc81c8a038a8834e33604051808273ffffffffffffffffffffffffffffffffffffffff1673ffffffffffffffffffffffffffffffffffffffff16815260200191505060405180910390a1809350505050919050565b60008180519060200120838051906020012014905092915050565b600080600281111561164157fe5b600b60009054906101000a900460ff16600281111561165c57fe5b1461166657600080fd5b600860009054906101000a900473ffffffffffffffffffffffffffffffffffffffff1673ffffffffffffffffffffffffffffffffffffffff163373ffffffffffffffffffffffffffffffffffffffff16146116c057600080fd5b6001600b60006101000a81548160ff021916908360028111156116df57fe5b02179055507f77fa8db2a42189c962393508e65080e081ece5a70daa280921fae7f4ef3f001460405160405180910390a150565b60065481565b600860009054906101000a900473ffffffffffffffffffffffffffffffffffffffff1681565b600280600281111561174d57fe5b600b60009054906101000a900460ff16600281111561176857fe5b1461177257600080fd5b600860009054906101000a900473ffffffffffffffffffffffffffffffffffffffff1673ffffffffffffffffffffffffffffffffffffffff163373ffffffffffffffffffffffffffffffffffffffff16146117cc57600080fd5b6000600b60006101000a81548160ff021916908360028111156117eb57fe5b021790555060006003819055506000600481905550600060068190555060006007819055507ffed9f377a5918bc777f9b9a76b759a23d8596c8e13a8774c6cb6eb679cc7191a60405160405180910390a150565b6001602052806000526040600020600091509050806000018054600181600116156101000203166002900480601f0160208091040260200160405190810160405280929190818152602001828054600181600116156101000203166002900480156118eb5780601f106118c0576101008083540402835291602001916118eb565b820191906000526020600020905b8154815290600101906020018083116118ce57829003601f168201915b505050505090806001018054600181600116156101000203166002900480601f0160208091040260200160405190810160405280929190818152602001828054600181600116156101000203166002900480156119895780601f1061195e57610100808354040283529160200191611989565b820191906000526020600020905b81548152906001019060200180831161196c57829003601f168201915b5050505050908060020160009054906101000a900460ff16905083565b60405180606001604052806060815260200160008152602001606081525090565b828054600181600116156101000203166002900490600052602060002090601f016020900481019282601f10611a0857805160ff1916838001178555611a36565b82800160010185558215611a36579182015b82811115611a35578251825591602001919060010190611a1a565b5b509050611a439190611aa3565b5090565b604051806060016040528060608152602001606081526020016000151581525090565b6040518060600160405280600073ffffffffffffffffffffffffffffffffffffffff168152602001606081526020016000151581525090565b611ac591905b80821115611ac1576000816000905550600101611aa9565b5090565b9056fea265627a7a72315820f20416a4187be2c4a07636ddec2f6b2afee913e6d7a35e78f99e2facecc59d6664736f6c63430005100032",
  "source": "pragma solidity ^0.5.0;\r\n\r\ncontract Szavazas {\r\n\r\n    struct szavazas {\r\n        address szavazoAddress;\r\n        string kerulet;\r\n        bool valasztott;\r\n    }\r\n\r\n    struct szavazo {\r\n        string szavazoNeve;\r\n        string kerulet;\r\n        bool szavazott;\r\n    }\r\n\r\n    struct indulok {\r\n        string induloNeve;\r\n        uint kapottSzavazat;\r\n        string kerulet;\r\n    }\r\n\r\n    mapping(uint => szavazas) private szavazatok;\r\n    mapping(address => szavazo) public szavazokTomb;\r\n    mapping(address => indulok) public indulokTomb;\r\n\r\n    uint private osszes = 0;\r\n    uint public eredmeny = 0;\r\n    uint public osszesIndulo = 0;\r\n    uint public osszesSzavazo = 0;\r\n    uint public osszesSzavazat = 0;\r\n    \r\n    address public szavazasAdminAddress;\r\n    string public szavazasAdminNeve;\r\n    string public szavazoKerulet;\r\n\r\n    enum Statusz { Meghirdetve, SzavazasAlatt, Vege }\r\n    Statusz public Szavazas_Statusz;\r\n\r\n    constructor(string memory _szavazasAdminNeve,string memory _szavazoKerulet) public {\r\n        szavazasAdminAddress = msg.sender;\r\n        szavazasAdminNeve = _szavazasAdminNeve;\r\n        szavazoKerulet = _szavazoKerulet;\r\n        Szavazas_Statusz = Statusz.Meghirdetve;\r\n        osszes = 0;\r\n    }\r\n\r\n    modifier csakAdmin() {\r\n        require(msg.sender == szavazasAdminAddress);\r\n        _;\r\n    }\r\n\r\n    modifier StatuszEllenorzes(Statusz _statusz) {\r\n        require(Szavazas_Statusz == _statusz);\r\n        _;\r\n    }\r\n\r\n    modifier KeruletEllenorzes(string memory _kerulet) {\r\n        require(compareStrings(_kerulet, szavazoKerulet));\r\n        _;\r\n    }\r\n\r\n    event szavazoHozzaadva(address szavazo);\r\n    event szavazasStart();\r\n    event szavazasBefejezes(uint eredmeny);\r\n    event szavazatLeadva(address szavazo);\r\n    event szavazasUjraindul();\r\n    event induloHozzaadva(address indulo);\r\n\r\n    function compareStrings(string memory a, string memory b) public view returns (bool) {\r\n        return (keccak256(bytes(a)) == keccak256(bytes(b)));\r\n    }\r\n\r\n    function UjSzavazo(address _szavazoAddress, string memory _szavazoNeve, string memory _kerulet) public StatuszEllenorzes(Statusz.Meghirdetve) csakAdmin {\r\n        szavazo memory sz;\r\n        sz.szavazoNeve = _szavazoNeve;\r\n        sz.kerulet = _kerulet;\r\n        sz.szavazott = false;\r\n        szavazokTomb[_szavazoAddress] = sz;\r\n        osszesSzavazo++;\r\n        emit szavazoHozzaadva(_szavazoAddress);\r\n    }\r\n\r\n    function UjIndulo(address _induloAddress, string memory _induloNeve, string memory _kerulet) public StatuszEllenorzes(Statusz.Meghirdetve) {\r\n        indulok memory i;\r\n        i.induloNeve = _induloNeve;\r\n        i.kerulet = _kerulet;\r\n        i.kapottSzavazat = 0;\r\n        indulokTomb[_induloAddress] = i;\r\n        osszesIndulo++;\r\n        emit induloHozzaadva(_induloAddress);\r\n    }\r\n\r\n    function SzavazasKezdese() public StatuszEllenorzes(Statusz.Meghirdetve) csakAdmin {\r\n        Szavazas_Statusz = Statusz.SzavazasAlatt;\r\n        emit szavazasStart();\r\n    }\r\n\r\n    function szavazatLeadas(address _valasztott) public StatuszEllenorzes(Statusz.SzavazasAlatt) KeruletEllenorzes(szavazokTomb[msg.sender].kerulet) returns (bool szavazott) {\r\n        bool talalat = false;\r\n        if (bytes(szavazokTomb[msg.sender].szavazoNeve).length != 0 && !szavazokTomb[msg.sender].szavazott) {\r\n            if(bytes(indulokTomb[_valasztott].induloNeve).length != 0) {\r\n                indulokTomb[_valasztott].kapottSzavazat++;\r\n                szavazokTomb[msg.sender].szavazott = true;\r\n                szavazas memory sz;\r\n                sz.szavazoAddress = msg.sender;\r\n                sz.valasztott = true;\r\n                osszes++;\r\n                szavazatok[osszesSzavazat] = sz;\r\n                osszesSzavazat++;\r\n                talalat = true;  \r\n            } \r\n        }\r\n        emit szavazatLeadva(msg.sender);\r\n        return talalat;\r\n    }\r\n\r\n    function szavazasVege() public StatuszEllenorzes(Statusz.SzavazasAlatt) csakAdmin {\r\n        Szavazas_Statusz = Statusz.Vege;\r\n        eredmeny = osszes;\r\n        emit szavazasBefejezes(eredmeny);\r\n    }\r\n\r\n    function szavazasReset() public StatuszEllenorzes(Statusz.Vege) csakAdmin {\r\n        Szavazas_Statusz = Statusz.Meghirdetve;\r\n        osszes = 0;\r\n        eredmeny = 0;\r\n        osszesSzavazo = 0;\r\n        osszesSzavazat = 0;\r\n        emit szavazasUjraindul();\r\n    }\r\n    \r\n}",
  "sourcePath": "C:/dataflex/Szavazas_Blockchain/contracts/Szavazas.sol",
  "compiler": {
    "name": "solc",
    "version": "0.5.16+commit.9c3226ce.Emscripten.clang"
  },
  "schemaVersion": "3.4.1",
  "updatedAt": "2021-05-16T14:17:15.233Z",
  "networkType": "ethereum",
  "devdoc": {
    "methods": {}
  },
  "userdoc": {
    "methods": {}
  }
}